:020000040000FA
:1000000060050010150200001D0200001F02000024
:100010002102000023020000250200000000000071
:1000200000000000000000000000000027020000A7
:1000300029020000000000002B0200005102000015
:100040002F020000852900002F020000E92D00008A
:100050002F0200002F0200002F0200002F020000DC
:100060002F0200002F0200002F0200002F020000CC
:100070002F0200002F0200002F0200002F020000BC
:100080002F0200002F0200002F0200002F020000AC
:100090002F020000752D00002F0200002F0200002B
:1000A0002F0200002F0200002F0200002F0200008C
:1000B0002F0200002F0200002F0200002F0200007C
:1000C0002F0200002F0200002F02000000F002F8B3
:1000D00000F090F80AA090E8000C82448344AAF152
:1000E0000107DA4501D100F085F8AFF2090EBAE850
:1000F0000F0013F0010F18BFFB1A43F0010318475C
:1001000098680000B8680000103A24BF78C878C129
:10011000FAD8520724BF30C830C144BF04680C600D
:10012000704700000023002400250026103A28BF55
:1001300078C1FBD8520728BF30C148BF0B60704759
:100140006E2904F05486702904F09C87662906F015
:10015000BD80652906F0BA80672906F0B78061295D
:10016000AFF3008003681B0A28BF41F080016929B2
:1001700004F0A484642904F0A184752904F09E8409
:100180006F2904F02787782904F06887E92904F0AB
:10019000BF86E42904F0BC86F52904F0B986EF296E
:1001A00004F02487F82904F067870368DB0928BF77
:1001B00041F08001632905F0D081732905F0D581D4
:1001C000E32905F0E081F32905F0E581002070477F
:1001D0001FB505F031FA04000020002105F0A6FF4C
:1001E000401C60600020002105F08AFFE0601FBD18
:1001F00010B510BD05F0F3F91146FFF7E9FF02F065
:1002000057FC05F0CFFA03B4FFF7F2FF03BC05F08B
:1002100013FB00000948804709480047FEE7FEE756
:10022000FEE7FEE7FEE7FEE7FEE7FEE7FEE7FEE7A6
:1002300004480549034A054B704700003904000093
:10024000CD00000060030010600500106003001086
:100250001B480068401C1A490860704730B51948AF
:1002600000684FF47A72B0FBF2F0411EB1F1807F6A
:1002700000D31BE021F07F40401E4FF0E022506190
:1002800050171F22002806DAD3000F4C00F00F058C
:100290002D1F635502E0D3000C4C235400BF0020F7
:1002A0004FF0E02290610720106100BF30BD044A8A
:1002B000116800BF024A1268521A8242FAD370478C
:1002C000040000100000001018ED00E000E400E061
:1002D0001CB50C46064B7B4469460090204604F052
:1002E000A0FD04460020694604F0AEFD20461CBD7A
:1002F0006F4B00007047704770477047FFFFFFFF6C
:1003000094480068C0F30160032864D192480068F3
:1003100010F0030006D0012823D002283FD0032884
:1003200058D100E000BF8B480068C0F30E0000F118
:1003300001004FEA4000894900FB01F08849D1F8EB
:100340008810C1F3074101F10101B0FBF1F18548CB
:100350000068C0B200F10100B1FBF0F08249086012
:1003600038E07C480068C0F30E0000F101004FEA5D
:1003700040007E4900FB01F07949D1F88810C1F3B3
:10038000074101F10101B0FBF1F176480068C0B20C
:1003900000F10100B1FBF0F0734908601AE06D480C
:1003A0000068C0F30E0000F101004FEA00416C4804
:1003B000D0F88800C0F3074000F10100B1FBF0F174
:1003C00068480068C0B200F10100B1FBF0F0664976
:1003D000086000BF2FE06048006810F0030006D0FE
:1003E000012810D0022819D0032823D100E000BF33
:1003F0005C480068C0B200F101005849B1FBF0F060
:100400005949086016E057480068C0B200F1010081
:100410005649B1FBF0F0544908600BE051480068C0
:10042000C0B200F101004FF40041B1FBF0F04E49C1
:10043000086000BF00BF704720204D490860484851
:10044000D0F8A00110F0200F05D000BF4848006888
:1004500010F0400FFAD00320424908604FF000002E
:100460003F49C1F8A801434908604FF001003A49EB
:1004700008604148414908604FF0AA0040490860BF
:100480004FF0550008604FF001003E4908604FF002
:10049000AA003B4908604FF055003149C1F88C0073
:1004A00000BF2C48006810F0806FFAD00320354957
:1004B00008604FF0AA002A49C1F88C004FF055009F
:1004C0002F49086000BF2348006810F0407FFAD031
:1004D00023202D4908604FF0AA002149C1F8AC0043
:1004E0004FF05500294908604FF001002849086085
:1004F0004FF0AA00254908604FF055001849C1F88F
:10050000AC0000BF2348006810F4806FFAD00320CD
:100510001F4908604FF0AA001149C1F8AC004FF024
:1005200055001A49086000BF1A48006810F4407F5F
:10053000FAD01948194908604FF000000849C1F87D
:10054000C80143F23A0008604FF000001449086007
:100550007047000088C00F400CC10F4000093D00EB
:1005600000C00F4004C10F4000000010001BB70086
:10057000A0C10F40ACC10F406300050084C00F4014
:100580008CC00F4080C00F40A4C00F40ACC00F40D3
:10059000A0C00F40A8C00F40DE872804C4C00F4091
:1005A00008ED00E010B50A46202801D2034601E01C
:1005B000A0F120031946202814D2464B1B684FF0A7
:1005C000030404FA01F423EA0403434CC4F8A831F9
:1005D000404B1B6802FA01F443EA04033E4CC4F8A2
:1005E000A83113E03D4B1B684FF0030404FA01F4FB
:1005F00023EA0403384CC4F8AC31384B1B6802FAC8
:1006000001F443EA0403344CC4F8AC3110BD014694
:10061000202903D20A462F4B186803E0A1F12002DB
:100620002E4B186820FA02F303F00300704770B5F0
:1006300006462B4804683046FFF7E9FF054635B10A
:10064000012D06D0022D06D0032D08D105E004258A
:1006500005E0012503E0022501E0082500BF00BFF9
:10066000B4FBF5F4204670BD01290AD11D4A126879
:100670001D4B00EA030342EA0302174BC3F8C420F0
:100680000AE049B9174A1268174B23EA000302EA45
:100690000302114BC3F8C4207047002013490860BF
:1006A00030BF704704201249086008200F490860D5
:1006B00030BF704704200E49086009200B490860CC
:1006C00030BF704704200A490860032007490860CA
:1006D00030BF7047A8C10F4000C00F40ACC10F40F1
:1006E00000000010C4C00F40DEF7EFEFC0C00F40A5
:1006F00010ED00E001460020052912D2DFE801F0EC
:100700000305080B0E00F8480CE0F748203009E01C
:10071000F548403006E0F448603003E0F2488030AD
:1007200000E000BF00BF704701460020052912D23B
:10073000DFE801F00305080B0E00EB480CE0EA4887
:10074000203009E0E848403006E0E748603003E048
:10075000E548803000E000BF00BF70470146002040
:10076000052912D2DFE801F00305080B0E00DE4870
:100770000CE0DD48203009E0DB48403006E0DA4894
:10078000603003E0D848803000E000BF00BF704711
:100790002DE9F04107460D4616463846FFF7AAFFF9
:1007A00004463CB11EB120682843206002E0206866
:1007B000A8432060BDE8F08170B506460C4630467F
:1007C000FFF798FF054605B1AC6170BD70B50646F0
:1007D0000C463046FFF78EFF054605B1EC6170BD53
:1007E00070B505462846FFF785FF04460CB16069E1
:1007F00070BD0020FCE718B912B9BC4B196014E0B9
:10080000022803D112B9BA4B19600EE020B9012AAF
:1008100002D1B84B196008E0022804D1012A02D1A4
:10082000B54B196001E000BFFEE7704703463BB9D6
:1008300032B9B248006820FA01F000F001007047B8
:10084000022B07D132B9AE48006820FA01F000F05F
:100850000100F4E743B9012A06D1AA48006820FA4A
:1008600001F000F00100EAE7022B08D1012A06D1CD
:10087000A548006820FA01F000F00100DFE700BFA2
:10088000FEE710B9A14A116006E0022802D1A04A91
:10089000116001E000BFFEE7704770B504460D46E9
:1008A0001646324629462046FFF772FF70BD70B5E6
:1008B00004460D4629462046FFF77EFF70BD70B501
:1008C00004460D4629462046FFF780FF70BD10B54F
:1008D00004462046FFF784FF10BD70B504460D4660
:1008E0001646324629462046FFF785FF70BD70B593
:1008F00004460D461646324629462046FFF796FF27
:1009000070BD10B503460C4621461846FFF7B9FFE7
:1009100010BD2DE9F04107460D4616463846FFF753
:10092000E9FE04463CB11EB120692843206102E083
:100930002069A8432061BDE8F0812DE9F04180469F
:100940000E4615461F464046FFF7EEFE04468CB1A4
:1009500047B11EB16088284360800BE0208828439F
:10096000208007E01EB16088A843608002E02088F4
:10097000A8432080BDE8F0812DE9F04180460E4675
:1009800015461F464046FFF7CFFE04468CB147B1DF
:100990001EB1608A284360820BE0208A28432082AF
:1009A00007E01EB1608AA843608202E0208AA84363
:1009B0002082BDE8F0812DE9F04107460E4614463D
:1009C0003846FFF7B1FE05461DB10EB16C8300E05D
:1009D0002C83BDE8F0812DE9F04107460E46144610
:1009E0003846FFF7A1FE05461DB10EB1EC8300E0CD
:1009F000AC83BDE8F08170B506460D463046FFF782
:100A000093FE044624B10DB1E08A70BDA08AFCE7D4
:100A10000020FAE72DE9F04180460C4616461F46B5
:100A20004046FFF79BFE05465DB12FB1032C08DC65
:100A3000285D3043285504E0032C02DC285DB043D8
:100A40002855BDE8F0812DE9F04180460C46164658
:100A50001F464046FFF782FE05469DB14FB1032C6D
:100A600010DC05F11000005D304305F11001085560
:100A700008E0032C06DC05F11000005DB04305F131
:100A800010010855BDE8F0812DE9F04107460C46FC
:100A900015463846FFF762FE064626B1032C02DCF7
:100AA00006F118000555BDE8F0812DE9F041074633
:100AB0000C4615463846FFF751FE064626B1032C74
:100AC00002DC06F11C000555BDE8F08170B5064654
:100AD0000C463046FFF742FE0546DDB1032C19DC1B
:100AE00005F11400005D70BD00C009209080024037
:100AF000B080024094800240B48002408480024072
:100B0000A480024088800240A88002408C8002407D
:100B1000AC8002400020E6E7F0B504460B461546DF
:100B2000194660003B4A102901D31039401C52F885
:100B300020604FEA410C032707FA0CF7BE4342F846
:100B4000206052F820604F0005FA07F73E4342F854
:100B50002060F0BDF0B504460B461546194660000E
:100B60002C4A4032102901D31039401C52F8206021
:100B70004FEA410C032707FA0CF7BE4342F8206006
:100B800052F820604F0005FA07F73E4342F8206014
:100B9000F0BD30B50B461F496831012A07D151F825
:100BA000204001259D402C4341F8204006E051F8AB
:100BB000204001259D40AC4341F8204030BD012834
:100BC00006D11449896A41F00801124A916206E08F
:100BD00028B91049896A21F008010E4A91627047CC
:100BE000012800D1052201B90A220A4BDA677047B1
:100BF00010B50446A27861782078FFF78DFFE2787F
:100C000061782078FFF7A6FF227961782078FFF7D6
:100C1000C0FF10BD00C0024070B5054635B1012DC2
:100C200009D0022D0CD0032D14D10EE00220FFF7C5
:100C3000FEFC04460EE00420FFF7F9FC044609E040
:100C40002C20FFF7F4FC044604E02E20FFF7EFFC15
:100C5000044600BF00BF204670BD2DE9F047814625
:100C60000C464846FFF7D8FF0026054600232946D4
:100C7000A1FB047C06FB04C205FB0321FB4A3846AA
:100C800003F064FE05462846BDE8F08701464FF0B4
:100C9000FF30B1F1402F01D100200DE0F44A914224
:100CA00001D1012008E0F34A914201D1022003E082
:100CB000F14A914200D10320704770B505460C46B9
:100CC000B5F1402F08D0EA48854205D0E948854271
:100CD00002D0E948854200D103E0A621E7A001F057
:100CE00055FF4CB1012C07D0022C05D0032C03D0AA
:100CF000042C01D0052C00D103E0A721DFA001F0D6
:100D000045FF28680121A1400840C6B20EB101206C
:100D100070BD0020FCE770B505460C46B5F1402FCC
:100D200008D0D348854205D0D248854202D0D24867
:100D3000854200D103E0C421D0A001F027FF4CB1CF
:100D4000012C07D0022C05D0032C03D0042C01D099
:100D5000052C00D103E0C521C8A001F017FF2868C9
:100D6000211D01228A401040C6B20EB1012070BD83
:100D70000020FCE770B505460C46B5F1402F08D0C1
:100D8000BB48854205D0BB48854202D0BA4885425F
:100D900000D103E0DD21B9A001F0F8FE4CB1012C37
:100DA00007D0022C05D0032C03D0042C01D0052C35
:100DB00000D103E0DE21B1A001F0E8FE0120A04057
:100DC000286070BD70B505460C46B5F1402F08D0BF
:100DD000A748854205D0A748854202D0A64885424B
:100DE00000D103E0F421A5A001F0D0FE4CB1012C0C
:100DF00007D0022C05D0032C03D0042C01D0052CE5
:100E000000D103E0F5219DA001F0C0FE201D0121CD
:100E10008140296070BD20B90A46012313705360D8
:100E200003E00A460023537000BF70472DE9F047E6
:100E300004460D461646B4F1402F08D08C48844233
:100E400005D08C48844202D08B48844200D104E013
:100E500040F22B1189A001F099FE1DB1012D01D0A6
:100E600000D000D104E04FF4967184A001F08EFE12
:100E7000B4F1402F08D101210220FFF7F5FB00213A
:100E80000220FFF78FFB22E07948844208D101213C
:100E90000420FFF7E9FB00210420FFF783FB16E0A5
:100EA0007448844208D101218805FFF7DDFB002149
:100EB0002C20FFF777FB0AE06F48844207D101211D
:100EC000C805FFF7D1FB00212E20FFF76BFBA06ABE
:100ED00020F00300A062A06AA0620020A060206150
:100EE000E060606840F002006060606820F002002E
:100EF000606085B93746387818B97868401EE06078
:100F000017E02046FFF7C2FE81467968FFF7A5FE8D
:100F1000401EE0600DE0B046A06A20F00C00A06228
:100F2000464698F80100012803D1A06A40F0040069
:100F3000A0624FF0FF302060BDE8F08710B5044696
:100F4000B4F1402F08D04A48844205D04948844231
:100F500002D04948844200D104E040F2791147A010
:100F600001F014FE00206060B4F1402F04D1002194
:100F70000220FFF779FB18E03D48844204D10021AC
:100F80000420FFF771FB10E03A48844205D10021AC
:100F90004FF48000FFF768FB07E03748844204D134
:100FA00000214FF48000FFF75FFB10BD70B50446D1
:100FB0000D46B4F1402F08D02D48844205D02D486D
:100FC000844202D02C48844200D104E04FF4CD7119
:100FD0002AA001F0DBFD012D04D1606840F0010082
:100FE000606003E0606820F00100606070BD10B5D3
:100FF0000446B4F1402F08D01D48844205D01D4856
:10100000844202D01C48844200D104E04FF4D971DC
:101010001AA001F0BBFD606840F0020060606068EB
:1010200020F00200606010BD70B504460D46B4F1BA
:10103000402F08D00E48844205D00E48844202D08A
:101040000D48844200D104E040F2D1110BA001F020
:101050009DFD287940B12879012805D028790228FA
:1010600002D02879032829D12EE0000040420F0049
:101070000080004000000940004009402E2E5C4CDA
:1010800069627261726965735C4C435031373638FE
:101090005F5374645065726970685F447269766505
:1010A000725C736F757263655C6C706331377878EE
:1010B0005F74696D65722E63000000004FF4E97182
:1010C000AFF2480001F062FD287830B1012807D066
:1010D000022808D003280CD108E0A868A0610AE023
:1010E000A868E06107E0A868206204E0A868606280
:1010F00001E000BFFEE700BF6069297801EB410213
:101100000721914088436061687838B16069297827
:1011100001EB41020121914008436061E87840B150
:101120006069297801EB4101491C01228A40104382
:101130006061A87840B16069297801EB4101891CA0
:1011400001228A4010436061E06B2978042202EB9F
:101150004102032191408843E063287900F00300B5
:101160002978042202EB41018840E16B0843E063E7
:1011700070BD70B504460E461546B4F1402F08D038
:101180004348844205D04348844202D042488442C6
:1011900000D105E040F20721AFF2201001F0F6FC8B
:1011A00036B1012E06D0022E06D0032E08D105E05E
:1011B000A56107E0E56105E0256203E0656201E005
:1011C00000BFFEE700BF70BD70B504460D46B4F128
:1011D000402F08D02E48844205D02E48844202D0A9
:1011E0002D48844200D105E040F22D21AFF2741069
:1011F00001F0CCFCA06A297801EB41020721914063
:101200008843A062687838B1A06A297801EB41026E
:10121000012191400843A062A87840B1A06A2978D2
:1012200001EB4101491C01228A401043A062E87889
:1012300040B1A06A297801EB4101891C01228A4052
:101240001043A06270BD70B504460D46B4F1402F46
:1012500008D00F48844205D00E48844202D00E4880
:10126000844200D105E04FF41271AFF2F01001F0AA
:101270008DFC0DB1012D00D105E040F24921AFF206
:10128000042001F083FC0DB9E06A70BD206BFCE71F
:101290000080004000000940004009402DE9F04F67
:1012A0008BB00446894600200990FE48844204D150
:1012B0000620FFF7BCF9074616E0FB48844204D13C
:1012C0000820FFF7B4F907460EE0F848844204D13D
:1012D0003020FFF7ACF9074606E0F548844203D119
:1012E0003220FFF7A4F907464FF0FF3B002007909C
:1012F000069000252E464FF001084DE00020089092
:1013000040E00898404400FB09FC0020010741EA46
:10131000171138070022A0FB083E01FB08E100FB83
:1013200002106246CDE900300023DDE9000103F040
:101330000DFBCDE9040104980390DDF814A0039897
:10134000B0F1004F04D90398404203900AF1010A1A
:10135000BAF1000F02D0BAF5803F00D90FE0039830
:1013600058450BD2DDF80CB000265546089807907A
:10137000CDF81880BBF1000F00D106E000BF08983F
:10138000401C089008984045BBD300BFBBF1000F3C
:1013900000D104E008F10108B8F10F0FAED900BF89
:1013A000002185EA01007140084302D10BB0BDE87D
:1013B000F08F3809069900FB01FC0846079908449C
:1013C0000021A0FB052301FB053100FB06100346AD
:1013D000CDE900206046002103F0B8FA029002989F
:1013E000814503D90298A9EB000B02E00298A0EB1B
:1013F000090B64200BFB00F0B0FBF9FBBBF1030F02
:1014000032D2A948844216D1207B40F0800020735C
:10141000280A40EA066020712570207B00F07F00DA
:101420002073F021069801EA0010079901F00F01DE
:101430000843A06216E0207B40F080002073280A59
:1014400040EA066020712570207B00F07F00207349
:10145000F021069801EA0010079901F00F010843F6
:1014600084F828000120099009989FE770B5044688
:101470000E468C48844208D08B48844205D08B4865
:10148000844202D08A48844200D103E0C92189A065
:1014900001F07CFB707940B17079012805D070793A
:1014A000022802D07079032800D103E0CA2181A06C
:1014B00001F06CFBB07910B1B079012800D103E0E4
:1014C000CB217CA001F062FB307958B13079012842
:1014D00008D03079022805D03079032802D030793D
:1014E000042800D103E0CC2172A001F04FFB6D482D
:1014F000844203D101210820FFF7B6F86A488442EC
:1015000003D101211020FFF7AFF86848844203D1CE
:1015100001210806FFF7A8F86548844203D101219C
:101520004806FFF7A1F86048844221D107202072C5
:101530000020207200E02578207D10F0010FFAD104
:10154000802084F8300000BF207D10F0200FFBD0F9
:10155000002084F83000606020732062207484F8DA
:101560004C0084F8540084F85000257E257D18E056
:10157000072020720020207200E02578207D10F0E6
:10158000010FFAD1802084F8300000BF207D10F0D8
:10159000200FFBD0002084F83000606020732062B0
:1015A000257D4348844202D1002084F8240020464F
:1015B0003168FFF773FE3C48844203D1207B00F082
:1015C000C00502E0207B00F0C005707930B1012831
:1015D00006D0022807D0032808D108E000BF09E0A0
:1015E00045F0010506E045F0020503E000BF45F0C7
:1015F000030500BF00BF3079C0B145F00805307960
:10160000012806D0022806D0032807D004280BD1D1
:1016100007E000BF09E045F0100506E045F02005B1
:1016200003E045F0300500E000BF00BFB07928B10D
:10163000012802D145F0040501E000BF00BF00BF52
:101640001948844201D1257300E0257370BD70B53F
:1016500004460D461348844208D01348844205D0FE
:101660001248844202D01248844200D104E040F281
:10167000EA3110A001F08AFA0DB1012D00D104E089
:1016800040F2EB310BA001F081FA012D37D1064871
:1016900084422DD194F8300040F0800084F830006E
:1016A0003BE0000000C00040000001400080094015
:1016B00000C009402E2E5C4C6962726172696573CC
:1016C0005C4C4350313736385F53746450657269EF
:1016D00070685F4472697665725C736F757263657A
:1016E0005C6C7063313778785F756172742E63005B
:1016F00094F8300040F0800084F830000DE0F948A4
:10170000844205D194F83000002084F8300004E0D1
:1017100094F83000002084F8300070BD10B5044605
:10172000F148844208D0EF48844205D0EF48844213
:1017300002D0EF48844200D105E040F29511AFF2AB
:101740008C0001F023FA00212046FFF780FFE648D5
:10175000844203D100210820FEF786FFE14884423D
:1017600003D100211020FEF77FFFE048844204D11E
:1017700000214FF08070FEF777FFDD48844204D1EE
:1017800000214FF00070FEF76FFF10BD4FF41651AF
:10179000016003214171002101718171704770B5B1
:1017A00004460D46D048844208D0CE48844205D035
:1017B000CE48844202D0CE48844200D105E040F2B7
:1017C000D911AFF2101001F0E1F9C648844201D1FD
:1017D000257000E0257070BD10B50446C2488442F3
:1017E00008D0C048844205D0C048844202D0C048D6
:1017F000844200D105E04FF4F971AFF2481001F0D6
:10180000C5F9B848844201D1207810BD2078FCE7A2
:101810002DE9FF5F80468A46934657465C4603980B
:10182000012824D100251FE04FF0FF3905E0B9F170
:10183000000F00D106E0A9F1010998F8140010F09A
:10184000200FF4D000BFB9F1000F00D10EE0102638
:1018500007E017F8011B4046FFF7A1FF761E641E44
:101860006D1C0EB1002CF4D1002CDDD117E0002549
:1018700012E098F8140010F0200F00D10EE01026AE
:1018800007E017F8011B4046FFF789FF641E761E2C
:101890006D1C0EB1002CF4D1002CEAD100BF2846FB
:1018A00004B0BDE8F09F2DE9F05F074689469246F7
:1018B0009B464E465546BBF1010F1DD1002418E052
:1018C0004FF0FF3805E0B8F1000F00D105E0A8F1B6
:1018D0000108387D10F0010FF5D000BFB8F1000FFE
:1018E00000D108E03846FFF777FF06F8010B6D1EC0
:1018F000641C002DE4D110E000240BE0387D10F0D2
:10190000010F00D108E03846FFF766FF06F8010B2B
:10191000641C6D1E002DF1D100BF2046BDE8F09F74
:1019200010B504467048844208D06E48844205D001
:101930006E48844202D06E48844200D105E04FF4E4
:101940002171AFF2902001F021F96648844204D160
:10195000207B40F04000207303E0207B40F04000FB
:10196000207310BD2DE9F04104460D4617465E4830
:10197000844208D05B48844205D05C48844202D04F
:101980005B48844200D105E040F2AB21AFF2DC209D
:1019900001F0FCF80FB1012F00D105E04FF42B71DD
:1019A000AFF2F02001F0F2F8072D15D2DFE805F0D4
:1019B0000406080A0C0E110001260DE002260BE0B9
:1019C000042609E0082607E0802605E04FF480762B
:1019D00002E04FF4007600BF00BF4248844214D1B9
:1019E0005DB1012D09D0022D07D0052D05D0062DA2
:1019F00003D0032D01D0042D00D116E04FF4327135
:101A0000AFF2503001F0C2F80FE03DB1012D05D02A
:101A1000022D03D0052D01D0062D00D105E04FF495
:101A20003371AFF2703001F0B1F8012F0AD12D48B7
:101A3000844203D160683043606013E060683043E3
:101A400060600FE02748844206D1606840F28F3121
:101A5000B1430840606005E0606840F20731B1437F
:101A600008406060BDE8F08110B504461E4884421D
:101A700008D01C48844205D01C48844202D01C482F
:101A8000844200D105E040F2FA21AFF2D83001F0F3
:101A90007DF81448844201D1007D10BD207DFCE713
:101AA00010B504461048844208D00E48844205D040
:101AB0000E48844202D00E48844200D105E040F234
:101AC0001131AFF2104001F061F8A06840F2CF315F
:101AD000084010BD0146087D10F0400F0AD00020DC
:101AE000704700000000014000C000400080094035
:101AF00000C009400120F3E770B506460C460025FA
:101B0000F748864208D0F748864205D0F648864214
:101B100002D0F648864200D105E040F23731AFF2FC
:101B20006C4001F033F8E07840B1E078012805D04E
:101B3000E078022802D0E078032800D105E04FF4D5
:101B40004E71AFF2904001F021F8A07810B1A0786A
:101B5000012800D105E040F23931AFF2A84001F090
:101B600015F8207810B12078012800D105E040F266
:101B70003A31AFF2C04001F009F8607810B16078F6
:101B8000012800D105E040F23B31AFF2D84000F02F
:101B9000FDFF45F00105E07830B1012806D00228AC
:101BA00007D0032808D108E000BF09E045F0400550
:101BB00006E045F0800503E000BF45F0C00500BF2A
:101BC00000BF6078012801D145F004052078012884
:101BD00001D145F00205A078012801D145F00805A2
:101BE000C048864203D105F0CF00307202E005F014
:101BF000CF00307270BD00218170C1700121017071
:101C0000417070472DE9F04104460F461546B4482F
:101C1000844208D0B348844205D0B348844202D0FD
:101C2000B248844200D105E040F29231AFF27C50DC
:101C300000F0ACFF0DB1012D00D105E040F2933171
:101C4000AFF2905000F0A2FF0026012D09D13878A4
:101C5000012801D146F002067878012801D146F02A
:101C60000406A048844215D1012D10D1207B40F0FC
:101C700080002073002020702071207B20F08000E5
:101C800020731020A06246F00100206218E00020BE
:101C9000206215E0012D11D1207B40F080002073DF
:101CA000002020702071207B20F080002073102005
:101CB00084F8280046F00100206201E00020206244
:101CC000BDE8F08170B504460D468548844208D0D1
:101CD0008448844205D08448844202D083488442A8
:101CE00000D105E040F2D331AFF2386000F04EFF92
:101CF0007C48844203D1206A2843206202E0206AA3
:101D00002843206270BD70B504460D467748844272
:101D100000D105E040F21441AFF2686000F036FFF8
:101D20000DB1012D00D105E040F21541AFF27C600C
:101D300000F02CFF012D06D194F8240040F00200A1
:101D400084F8240006E02DB994F8240000F03D004A
:101D500084F8240070BD70B504460D466348844283
:101D600000D105E040F22C41AFF2B86000F00EFF68
:101D70000DB1012D00D105E040F22D41AFF2CC6054
:101D800000F004FF012D06D194F8240040F001007A
:101D900084F8240005E094F8240000F03E0084F864
:101DA000240070BD2DE9F04105460C464F488542A0
:101DB00000D105E040F24D41AFF2087000F0E6FEC0
:101DC0006CB1012C0BD0022C09D0032C07D0042CB1
:101DD00005D0052C03D0062C01D0072C00D105E03E
:101DE00040F24E41AFF2347000F0D0FE6007870E33
:101DF00095F8240020F0380647F00400064306F06A
:101E00003F0085F82400BDE8F0812DE9F04104464B
:101E10000D46164600273348844200D105E040F2C3
:101E20006D41AFF2707000F0B1FE0DB1012D00D127
:101E300005E040F26E41AFF2847000F0A7FE0EB1F3
:101E4000012E00D105E040F26F41AFF2987000F032
:101E50009DFE15B1012D04D101E0012702E002270A
:101E600000E000BF00BF012E03D1207C3843207466
:101E700004E0207CF321B94308402074BDE8F081E0
:101E80002DE9F04104460D4617461648844200D11C
:101E900005E040F29541AFF2E47000F077FE1DB12D
:101EA000012D01D0022D00D105E040F29641AFF2A4
:101EB000FC7000F06BFE0FB1012F00D105E040F285
:101EC0009741AFF6100000F061FE25B1012D04D05E
:101ED000022D0FD10CE010260DE040260BE0000093
:101EE00000C00040000001400080094000C00940DF
:101EF000802600E000BF00BF012F03D1207C3043CB
:101F0000207404E0207CF321B14308402074BDE834
:101F1000F08110B504467748844200D105E04FF4C3
:101F20009861AFF6700000F031FE207E10BD70B5F4
:101F300006460C466F48864200D105E040F2D44187
:101F4000AFF6900000F022FEA07810B1A078012832
:101F500000D105E040F2D541AFF6A80000F016FE32
:101F6000E07810B1E078012800D105E040F2D641D8
:101F7000AFF6C00000F00AFEE079FF2800DA05E0C5
:101F800040F2D741AFF6D40000F000FE607910B106
:101F90006079012800D105E04FF49B61AFF6EC00B9
:101FA00000F0F4FD207910B12079012800D105E07E
:101FB00040F2D941AFF6041000F0E8FDA079FF2807
:101FC00000DA05E040F2DA41AFF6181000F0DEFD6D
:101FD000207810B12078012800D105E040F2DB41E3
:101FE000AFF6301000F0D2FD607810B160780128B3
:101FF00000D105E040F2DC41AFF6481000F0C6FD2C
:102000000025E07801280ED145F0100560790128FF
:1020100001D145F020052079012801D145F00805BE
:10202000E07986F854002078012801D145F00105B7
:10203000A078012804D145F00405A07986F8500065
:10204000607808B945F0020586F84C50307B40F0C6
:102050003800307370BD012906D190F84C2022F071
:10206000020280F84C2005E090F84C2042F0020279
:1020700080F84C2070472DE9F04704468946924687
:102080001F469FB1257BA84628F0100884F80C80D5
:102090000123524649462046FFF7BAFB064600BFD9
:1020A000207D10F0400FFBD025730BE0012352463A
:1020B00049462046FFF7ACFB064600BF207D10F0E6
:1020C000400FFBD03046BDE8F08713B5044601232E
:1020D0001A4601A92046FFF7CEFF1CBD70B5044685
:1020E0000D4616460023324629462046FFF7C3FF19
:1020F00070BD0000000001402DE9F047044688460D
:10210000FB48844202D0FB48844200D103E04321D3
:10211000F9A000F03BFDF648844204D12A20FEF7E6
:1021200086FA074609E0F348844204D11420FEF7FA
:102130007EFA074601E0BDE8F08700254FF0FF3941
:1021400002260AE0681C7043B7FBF0F9C14504D9C8
:102150006D1CFF2D01D90025B61CC145F2D82068A1
:10216000C0B2206020684FF6FF7101EA05210843E4
:102170002060F0B2206100BFDDE770B504460D4677
:10218000DB48844202D0DB48844200D103E0812155
:10219000D9A000F0FBFCD648844204D101214805B7
:1021A000FEF762FA08E0D348844204D10121001509
:1021B000FEF75AFA00E070BDA88829890843298AE9
:1021C00008432988084386B22660287B00F00F0662
:1021D000666020466969FFF78FFF00BFEBE710B527
:1021E0000446C348844202D0C248844200D103E07E
:1021F000A821C1A000F0CAFCBD48844205D100213D
:102200004FF40010FEF730FA06E0BA48844203D1DA
:1022100000210015FEF728FA10BD10B50446B44899
:10222000844202D0B348844200D103E0C021B2A06E
:1022300000F0ACFC206800F00F0010BD00214160F0
:102240008160BC494161072101600021C1600161D9
:10225000704770B504460D46A548844202D0A54893
:10226000844200D103E0E521A3A000F08FFC0DB172
:10227000012D00D103E0E6219FA000F087FC012D95
:1022800004D1606840F00200606003E0606800F024
:102290000D00606070BD70B504460D4694488442E0
:1022A00002D09448844200D103E0FE2192A000F0C5
:1022B0006DFC0DB1012D00D103E0FF218EA000F0D7
:1022C00065FC012D04D1606840F00100606003E00E
:1022D000606800F00E00606070BD70B504460D4689
:1022E0008348844202D08348844200D104E04FF402
:1022F0008D7181A000F04AFC0DB1012D00D104E0E8
:1023000040F21B117CA000F041FC012D04D160685B
:1023100000F00700606003E0606840F00800606063
:1023200070BD70B504460D467148844202D07148B4
:10233000844200D104E04FF49A716FA000F026FCB3
:10234000A56070BD10B504466948844202D0694852
:10235000844200D104E04FF4A27167A000F016FCA3
:10236000A06880B210BD2DE9F74F82B006460C463A
:102370000020E0606060606103E03046FFF7E2FF4C
:102380000746F06810F0040FF7D1032030623046A2
:10239000FFF743FF082801DD012500E00025049830
:1023A00000287AD125B9D4F80890D4F800A003E029
:1023B000D4F808B02068019060E0F06810F0020FD7
:1023C0002ED02169606888422AD0206888B93DB93A
:1023D000FF213046FFF7A5FF6068401C60601FE0EA
:1023E0004FF6FF713046FFF79CFF6068801C60600D
:1023F00016E055B99AF800103046FFF792FF0AF13F
:10240000010A6068401C60600AE00198018830465B
:10241000FFF787FF0198801C01906068801C606056
:10242000D6F8188018F0010F07D048F400706061EA
:102430004FF0FF3005B0BDE8F08F17E03046FFF7F2
:1024400081FF0746A06848B125B989F8007009F1F5
:10245000010903E0ABF800700BF1020B1DB9E06855
:10246000401CE06002E0E068801CE060F06810F072
:10247000040F03D0D4E903018842DFD121696068E9
:1024800088429AD1D4E90301884296D14FF48070F2
:102490006061206810B16068CCE705E0A06808B111
:1024A000E068C7E70020C5E7049801287ED176E000
:1024B000206888B93DB9FF213046FFF732FF6068D8
:1024C000401C606041E04FF6FF713046FFF729FF86
:1024D0006068801C606038E04DB9D4E90002815C1E
:1024E0003046FFF71EFF6068401C60602DE023E06F
:1024F00000800840000003402E2E5C4C696272612F
:10250000726965735C4C4350313736385F5374647D
:102510005065726970685F4472697665725C736F4A
:10252000757263655C6C7063313778785F73737054
:102530002E63000040420F00D4E90002815A304669
:10254000FFF7EFFE6068801C6060D6F8188018F016
:10255000010F05D048F4007060614FF0FF3069E76B
:1025600015E03046FFF7EEFE0746A06838B11DB90A
:10257000D4E902128F5402E0D4E9020147521DB996
:10258000E068401CE06002E0E068801CE060F06809
:1025900010F0040F03D0D4E903018842E1D1F068C0
:1025A00010F0020F06D02169606800E012E0884256
:1025B0007FF47EAFD4E90301884203D121696068CA
:1025C000884202D00F20706102E04FF48070606199
:1025D00000202FE74FF0FF302CE770B505460C4682
:1025E0007648854202D07648854200D105E04FF416
:1025F0000571AFF2FC0000F0C9FA012C07D0022CE3
:1026000005D0042C03D0082C01D0102C00D105E0FB
:1026100040F21521AFF2201000F0B8FAE86820422D
:1026200001D0012070BD0020FCE770B504460D46C6
:1026300016466248844202D06148844200D105E0D7
:102640004FF40B71AFF2501000F0A0FA012E03D13D
:1026500060692843606104E060690F21A943084074
:10266000606170BD70B505460C465448854202D085
:102670005348854200D105E040F24921AFF288106D
:1026800000F084FA012C05D0022C03D0042C01D0D8
:10269000082C00D105E040F24A21AFF2A41000F06E
:1026A00075FAA869204201D0012070BD0020FCE726
:1026B00010B504464148844202D04148844200D1CA
:1026C00005E04FF41671AFF2D01000F05FFAA06988
:1026D00010BD70B505460C463848854202D03848D2
:1026E000854200D105E040F26D21AFF2F41000F018
:1026F0004DFA012C05D0022C03D0042C01D0082C5B
:1027000000D105E040F26E21AFF2142000F03EFA55
:10271000E869204201D0012070BD0020FCE770B5BF
:1027200004460D462548844202D02548844200D103
:1027300005E040F28121AFF2402000F027FA012DA0
:1027400001D0022D00D105E040F28221AFF25820E5
:1027500000F01CFA256270BD70B504460D461646A1
:102760001648844202D01648844200D105E040F267
:102770009721AFF27C2000F009FA022D01D0012D43
:1027800000D105E04FF42671AFF2942000F0FEF97D
:102790000EB1012E00D105E040F29921AFF2A82040
:1027A00000F0F4F9012E03D1606A2843606204E06E
:1027B000606A0321A9430840606270BD0080084040
:1027C000000003401CB501208DF800001C208DF88E
:1027D000010003208DF802008DF8030000208DF821
:1027E00004006846FEF704FA012251021046FDF784
:1027F000CFFF01208DF8000009208DF80100002096
:102800008DF8020003208DF8030000208DF80400ED
:102810006846FEF7EDF900208DF800000A208DF8DB
:10282000010003208DF802008DF8030000208DF8D0
:1028300004006846FEF7DCF900208DF80000052052
:102840008DF8010003208DF8020000208DF80300B0
:102850008DF804006846FEF7CBF9012211460020EE
:10286000FDF796FF01210020FDF7B0FF01221106C0
:102870000020FDF78DFF00208DF8000018208DF856
:10288000010000208DF802008DF803008DF804008F
:102890006846FEF7ADF94FF080710020FDF796FF16
:1028A00000224FF080611046FDF772FF00208DF886
:1028B00000001A208DF8010000208DF802008DF82C
:1028C00003008DF804006846FEF792F900224FF0ED
:1028D00000711046FDF75CFF00208DF80000192004
:1028E0008DF8010000208DF8020003208DF8030010
:1028F00000208DF804006846FEF77AF915200121C2
:10290000814042094FF0E02303EB8202C2F800113C
:1029100000BF4FF000710020FDF758FF1CBD000004
:1029200000B585B001208DF80C00049003AA0021A9
:102930004FF04020FEF77AFA00208DF800000120C9
:102940008DF801008DF8030000208DF802008DF84D
:1029500004000120029069464FF04020FEF764FB1E
:1029600001214FF04020FEF721FB01200121814091
:1029700042094FF0E02303EB8202C2F8001100BFCE
:1029800005B000BD10B52F480068401C2D490860F7
:10299000084600684CF25031B0FBF1F201FB120026
:1029A00010B901202849086028480068401C2749C0
:1029B00008602748006801283DD126480068401C6F
:1029C0002449086024480068401C234908602348C3
:1029D0000068401C214908601F480068B0F50E7F60
:1029E0000CD11F490968481C00EBD0714910A0EBBD
:1029F00041011B4A11600020174908601748006810
:102A0000A0F5743190390CD116490968481C00EBC7
:102A1000D0714910A0EB4101124A116000200F490A
:102A200008600C4800681049884204D10020084919
:102A300008600849086000214FF04020FEF79AF92D
:102A400010BD0000440000107C00001024000010A5
:102A500074000010300000108C0000109000001076
:102A60008000001084000010E070720010B50E4865
:102A70000068012803D14102FDF79EFE04E04FF4F7
:102A800000710120FDF7A2FE10BD10B507480068D7
:102A9000012802D1FFF7EAFF04E04FF400710120A2
:102AA000FDF794FE10BD00008000001084000010AF
:102AB000FFF788FEFFF734FF00F070FA00F07CF8B3
:102AC00000F028FC0120324908605EE000F030F997
:102AD00000F0C0F800F0ECF800F092F800F03DF9DA
:102AE0002C48006801282CD12B48006848BB0020E6
:102AF0002849086029480068002806DD2848006841
:102B000018B900F0EAFB00F02FFB214A25492648BE
:102B100001F01FFE1E480068012807D100201C4953
:102B2000086001201E49086000F04EFC1F48006844
:102B3000012806D100F018FB00201C490860184944
:102B400008601B480068032803D01A480068012861
:102B50000AD101210020FDF739FE00F049FA0020DA
:102B6000144908601249086009480068012803D028
:102B700009480068012802D1012009490860084875
:102B80000068012801D1FFF780FF9FE700BFFEE743
:102B9000780000107C000010940000106C00001001
:102BA0007400001072000010700000108800001007
:102BB000280000102C00001000B585B001208DF811
:102BC0000C00049003AA00210C48FEF72FF9002006
:102BD0008DF800008DF8010001208DF80300002021
:102BE0008DF8020003208DF804000D200290694644
:102BF0000248FEF719FA05B000BD00000040094088
:102C000010B56B48006801280AD16A484069C0F3D2
:102C10000060F0B94FF080710020FDF7CDFD18E0A5
:102C20006548006801280DD162484069C0F3006022
:102C300078B14FF080710020FDF7C8FD01205F4999
:102C4000086006E000205D4908605D4908605D4954
:102C5000086010BD57484069C0F3806018B9012072
:102C60005949086002E00020574908607047012078
:102C70004F490860002050490860514800681930E9
:102C800050490968B1EB400F02DB00204849086059
:102C90004B49096801F5C330AA3000EBD071494AAD
:102CA0001268B2EB610F02DC0120434908607047F3
:102CB00000B545480068012801D1FFF7D8FF00BDE5
:102CC00010B5012251060020FDF795FD3F49096826
:102CD0003F4A1268881A03F067FA3E4908603E4886
:102CE0000068CB2801DA012000E000203A49096899
:102CF000B1F5BD7F01DB012100E00021084310D0C8
:102D000034480168354803F067FA0AD83449314835
:102D1000006803F061FA04D832480068401C314969
:102D200008602C48006803F023FA2B49086010BDA6
:102D300010B52548006801280ED0224800682049B7
:102D4000086000201A4908601B490860254908608E
:102D50004FF08071FDF73AFD10BD10B517480068BF
:102D6000012806D1002241061046FDF744FDFFF779
:102D7000A7FF10BD10B50F484069C0F3406040B1D7
:102D80004FF000710020FDF77CFD0E4800681049EF
:102D9000086008484069C0F3406040B94FF00071D6
:102DA0000020FDF76EFD074800680849086010BD67
:102DB0009800001000C009209C0000103C0000108A
:102DC00038000010240000109400001020000010B3
:102DD0001C000010A00000104000001000004B4339
:102DE0000080BC432800001010B56648006B66499F
:102DF000096842F234121144884211D96148006BCB
:102E00006149096842F21C521144884208D20120EB
:102E10005E49086000205E4908605E4908609DE0E8
:102E20005848006B5849096841F2301211448842F1
:102E30001BD95448006B5449096841F2F8121144F7
:102E4000884212D251480068012805D14F480068D5
:102E5000401C4E49086002E000204C4908600020F8
:102E60004C4908604A49086078E04748006800F526
:102E7000C8704449096B88421BD24248016B4248E2
:102E8000006800F2EE20814213D201203F49086021
:102E900030B14048006818B901203E49086004E09C
:102EA00000203C4908603A49086000203749086022
:102EB00054E03548006800F561703249096B88427A
:102EC00020D23048016B3048006800F24C4081420B
:102ED00018D23048006801280BD101212E482C4A15
:102EE000126840F822102A480068401C28490860EF
:102EF00002E0002026490860002026490860234996
:102F000008602BE02048006800F26C701D49096BD6
:102F100088421CD21B48016B1B48006800F6340035
:102F2000814214D21B48006801280AD11848006861
:102F3000401C1749086000201749154A126841F8DB
:102F400022000020134908601049086006E00020B4
:102F5000104908600E4908600C4908600948006B78
:102F6000094908600A480068032803D101210020AC
:102F7000FDF722FC01200349086005210148FDF707
:102F8000F9FE10BD00000940600000105400001060
:102F9000580000105C000010A80000100EB50120C1
:102FA0008DF8000001906A4600211048FDF73EFFB1
:102FB00001208DF808008DF809008DF80A008DF8C1
:102FC0000B0002A90948FEF7FFF803200121814008
:102FD00042094FF0E02303EB8202C2F8001100BF68
:102FE00001210248FDF7E2FF0EBD0000000009408C
:102FF00010B501215548FDF7D9FF554800685549DE
:10300000086000BF524800685249096841F29412B2
:1030100011448842F6D100214C48FDF7C7FF4C48C7
:1030200000684C49086000BF494801684948006889
:1030300000F6CA008142F7D10020474908605AE0F3
:1030400046484549096850F82100012826D1012148
:103050003E48FDF7ABFF3E4800683E49086000BFB0
:103060003B4801683B48006800F596708142F7D103
:1030700000213648FDF79AFF354800683549086059
:1030800000BF334801683348006800F5FA70814298
:10309000F7D133480068401C314908602F482E4959
:1030A000096850F8210008BB01212848FDF77EFF80
:1030B000274800682749086000BF2548016825485F
:1030C000006800F596708142F7D100211F48FDF796
:1030D0006DFF1F4800681F49086000BF1C48016859
:1030E0001C48006800F57A708142F7D11A480068E0
:1030F000401C194908601B480068401E16490968B1
:1031000088429DDA01211148FDF750FF1048006800
:103110001049086000BF0E4801680E48006800F5BD
:1031200096708142F7D100210848FDF73FFF08481B
:1031300000680849086000BF05480068054909683B
:1031400044F6206211448842F6D110BD0040094087
:103150004400001050000010680000100C00001027
:103160004C0000100800001038B547F6FF7000F062
:10317000E5FA47F6FF70002331222021009021203C
:1031800001F0CAF847F6FF70002332222021009098
:10319000732001F0C1F847F6FF700023332220218D
:1031A0000090C32001F0B8F847F6FF7000233422E6
:1031B00070210090212001F0AFF847F6FF70002346
:1031C000352270210090732001F0A6F847F6FF70B9
:1031D0000023362270210090C32001F09DF847F6AD
:1031E000FF7000233722C0210090212001F094F8C5
:1031F00047F6FF7000233822C0210090732001F0B1
:103200008BF847F6FF7000233922C0210090C320BD
:1032100001F082F847F6FF70002330224FF48871E6
:103220000090732001F078F8F0A1F24801F006FC5C
:10323000F149086047F6FF700023EE4A4FF48871A9
:103240000090102001F0A3F8ECA1EA4801F0F6FB91
:10325000E949086047F6FF700023E64A4FF4887199
:103260000090AD2001F093F800241BE047F6FF70BA
:103270000090A0B200232D22492101F04DF847F61D
:10328000FF700090A0B200232D22992101F044F894
:1032900047F6FF700090A0B200232D22E92101F033
:1032A0003BF8641DF02CE1DB002512E047F6FF70CF
:1032B000A9B200237C2200904B2001F02DF847F6A4
:1032C000FF70A9B200237C2200909B2001F024F81B
:1032D0000835B5F5A07FE9DB38BD0020C949086095
:1032E000C94908600AE00020C849C74A126841F885
:1032F0002200C5480068401CC3490860C2480068F5
:103300000428F0DB0020C2490880C2490880C24975
:103310000860704710B500F011FBFFF7DEFFFFF704
:1033200023FF01F00BF910BD08B5BB480068042865
:1033300034D1B648006801281FD1B448406802283B
:103340001BD1B2488068032817D1B048C068042850
:1033500013D10120B1490860B1A1A64801F06EFB6C
:10336000A549086047F6FF700023A24A4FF4967102
:1033700000903E2001F00BF820E0ADA19D4801F047
:103380005DFB9D49086047F6FF700023994A4FF4A2
:1033900096710090232000F0FAFF0FE0A4A1954859
:1033A00001F04CFB9449086047F6FF700023914AF6
:1033B0004FF496710090232000F0E9FF0120A2490C
:1033C0000860FFF78AFF08BD10B591480088B0F586
:1033D000967F5ADD8E48008840F2AA51884254DA1E
:1033E0008C4800884900884210DD8A48008840F6F1
:1033F000D86188420ADA01208449874A126841F874
:10340000220085480068401C834908608148008884
:10341000B0F5FA6F10DD7F48008840F654318842DD
:103420000ADA042179487C4A126840F822107A4866
:103430000068401C784908607648008840F24C419A
:1034400088420FDD73480088B0F5FA6F0ADA07206A
:103450006E49714A126841F822006F480068401CAA
:103460006D4908606B480088C8280EDD69480088EF
:1034700040F24C41884208DA67480068002804DDC1
:1034800065480068401E644908606148008840F251
:10349000AA5188424EDD5E48008840F628218842C5
:1034A00048DA5C48008840F6543188420BDD5948C0
:1034B000008840F6D861884205DA02205349564A0E
:1034C000126841F8220053480088B0F5FA6F0BDD0E
:1034D0005048008840F65431884205DA05204B49AF
:1034E0004D4A126841F822004A48008840F24C4197
:1034F00088420ADD47480088B0F5FA6F05DA0820EF
:103500004249454A126841F8220042480088C828CA
:103510000BDD4048008840F24C41884205DA00202B
:103520003A493D4A126841F822003B480068401C75
:10353000394908603648008840F62821884254DD21
:103540003348008840F6A66188424EDA3148008848
:1035500040F65431884210DD2E48008840F6D8618C
:1035600088420ADA032129482B4A126840F82210BF
:1035700029480068401C2849086026480088B0F5A2
:10358000FA6F10DD2348008840F6543188420ADA89
:1035900006201E49204A126841F822001E48006891
:1035A000401C1D4908601B48008840F24C4188427D
:1035B0000FDD18480088B0F5FA6F0ADA09211348C0
:1035C000154A126840F8221013480068401C12493E
:1035D000086010480088C82807DD0E48008840F2BF
:1035E0004C41884201DAFFF79FFE10BD5265746FAF
:1035F00075720000C40000106400001056616C6910
:10360000646572007800001068000010D40000109B
:1036100070000010720000106C0000102C000010F0
:103620004465766572726F75696C6C6167650000E0
:10363000457272657572206465206D6F74206465D3
:10364000207061737365000088000010000200BFE5
:103650000100A0F10100FBD1704710B501224FF429
:1036600070010020FDF719F901224FF0607110463A
:10367000FDF713F94FF470010020FDF718F94FF032
:1036800060710120FDF713F910BD10B5222002F082
:103690000DFD10BD10B504464FF48000FE49C86111
:1036A00080108861204602F0A3FC4FF40000FA4924
:1036B000C861012002F0F0FC4FF40000F649886177
:1036C0004010886110BDF5480088704730B501464C
:1036D00001F01F04C1F34513CA0AE50205EB4315C7
:1036E0001544A8B230BD70B504460D46EB480088BD
:1036F000A0F50941893907D1A1B24E2002F0F6FCAC
:10370000A9B24F2002F0F2FCA1B2202002F0EEFCA0
:10371000A9B2212002F0EAFC70BD70B504460D4646
:1037200029462046FFF7DFFFFFF7AFFF02F076FCE8
:10373000064602F073FC0646304670BD70B505467D
:10374000002400210846FFF7CEFFFFF79EFF00BFD1
:1037500003E02846FFF79EFF641CB4F5963FF8D3BC
:1037600070BD70B5CD480088A0F50941893905D1F3
:1037700046F23001112002F0B9FC04E041F23001C0
:10378000032002F0B3FC00210846FFF7ACFFFFF76F
:103790007CFF45F25550FFF77DFF4AF6AA20FFF760
:1037A00079FF00210846FFF79EFFBC480088A0F57E
:1037B000134125390BD0B9480088A0F513412839A9
:1037C00005D0B6480088A0F51341203910D100215A
:1037D0000846FFF7A2FF0646FFF778FF05460021DF
:1037E0000120FFF79AFF0646FFF770FF044615E039
:1037F000AA480088A0F58A41313905D0A748008839
:10380000A0F50941893909D100210846FFF785FF54
:10381000054600210120FFF780FF0446A5F5AA40D8
:10382000553807D1A4F52A40AA3803D19CA000F04E
:1038300022FE04E0224629469FA000F01CFE70BD37
:103840002DE9F041A5A000F016FE94480088A0F5EF
:103850000941893904D041F23001032002F046FCCD
:10386000002500210846FFF73EFFFFF70EFF00246A
:1038700005E02846FFF70EFF681C85B2641CB4F50E
:10388000963FF6D3002585480088A0F513412039DE
:103890000BD082480088A0F51341253905D07F4818
:1038A0000088A0F5134128391FD1002416E0002616
:1038B00011E021463046FFF730FF0746FFF706FFCD
:1038C00029466A1C95B2884204D089A000F0D3FD35
:1038D000BDE8F081761CF02EEBD3641CB4F5A07F1C
:1038E000E5D388A000F0C7FD26E06C480088A0F56D
:1038F0008A41313905D069480088A0F509418939E4
:103900001AD1002412E000260DE021463046FFF7D0
:1039100004FF29466A1C95B2884203D07DA000F0BE
:10392000AAFDD5E7761CF02EEFD3641CB4F5A07F7A
:10393000E9D374A000F09FFD00BFC9E770B5FFF7A1
:103940008CFE40F2DC50FFF781FE0024204602F09E
:10395000ADFB02F063FB054600BF504805800088C0
:10396000A0F58A4131392BD04C480088A0F5EE41B2
:10397000833925D049480088A0F5134120391FD04C
:1039800046480088A0F51341253919D043480088DE
:10399000A0F51341283913D040480088B0F5134FE3
:1039A0000ED03E480088A0F50941893908D03B482F
:1039B00001885DA000F05FFD61A000F05CFD70BDBE
:1039C0003648018869A000F056FD34480088A0F50B
:1039D0001341253905D031480088A0F51341283915
:1039E00058D11021E72002F081FB0121002002F0D4
:1039F0007DFB4FF48071012002F078FB4FF4E06111
:103A0000022002F073FB41F22801032002F06EFB5A
:103A10000021042002F06AFB40F20721082002F096
:103A200065FB0021092002F061FB00210A2002F061
:103A30005DFB01210C2002F059FB00210D2002F05A
:103A400055FB00210F2002F051FB0021102002F055
:103A50004DFB0721112002F049FB0021122002F04A
:103A600045FB0021132002F041FB0F20FFF7EEFD84
:103A700041F29051102002F039FB40F22721112031
:103A800002F034FB0F20FFF7E1FD9C21122002F031
:103A90002DFB77E021E1000000C00920A400001008
:103AA0006461746120627573207465737420706141
:103AB0007373210D0A0000006461746120627573E4
:103AC0002074657374206572726F723A20253034E9
:103AD0005820253034580D0A000000004C43442083
:103AE0004752414D20746573742E2E2E2E0A00000D
:103AF0004C4344204752414D204552524F522121C0
:103B00000D0A0000544553542050415353210D0ACF
:103B1000000000004C4344204752414D2045525282
:103B20004F52210D0A000000496E76616C696420D5
:103B30004C43442049443A253038580D0A000000CF
:103B4000506C6561736520636865636B20796F7580
:103B500020686172647761726520616E6420636FB2
:103B60006E6669677572652E0D0A00004C4344202D
:103B7000446576696365204944203A2025303458ED
:103B8000200D0A000F20FFF761FD4FF4C8511320EC
:103B900002F0ACFA2321292002F0A8FA0E212B20F2
:103BA00002F0A4FA0F20FFF751FD0021202002F0BF
:103BB0009DFA0021212002F099FA0F20FFF746FD1F
:103BC0000721302002F092FA40F20771312002F012
:103BD0008DFA0621322002F089FA40F20471352074
:103BE00002F084FA41F60471362002F07FFA0421D3
:103BF000372002F07BFA0021382002F077FA40F2F9
:103C00000671392002F072FA40F201713C2002F094
:103C10006DFA0F213D2002F069FA0F20FFF716FD23
:103C20000021502002F062FAEF21512002F05EFAEA
:103C30000021522002F05AFA40F23F11532002F0C4
:103C400055FA4FF42741602002F050FA012161201B
:103C500002F04CFA00216A2002F048FA002180208C
:103C600002F044FA0021812002F040FA0021822073
:103C700002F03CFA0021832002F038FA002184206F
:103C800002F034FA0021852002F030FA1021902051
:103C900002F02CFA0021922002F028FA032193204E
:103CA00002F024FA4FF48871952002F01FFA0021E7
:103CB000972002F01BFA0021982002F017FA40F238
:103CC0003311072002F012FA0021202002F00EFA30
:103CD0000021212002F00AFA12E3FC480088A0F536
:103CE0001341203904D0F9480088B0F5134F7DD135
:103CF0000021084602F0FAF90021012002F0F6F94D
:103D00004FF4E061022002F0F1F941F218010320C2
:103D100002F0ECF90021042002F0E8F940F202215F
:103D2000082002F0E3F90021092002F0DFF9002168
:103D30000A2002F0DBF901210C2002F0D7F9002162
:103D40000D2002F0D3F900210F2002F0CFF90F204F
:103D5000FFF77CFC40F20111072002F0C7F90F20A9
:103D6000FFF774FC4FF48651102002F0BFF90721D1
:103D7000112002F0BBF94FF48871122002F0B6F95D
:103D80004FF43061132002F0B1F90021292002F034
:103D9000ADF944F210012B2002F0A8F900215020C7
:103DA00002F0A4F9EF21512002F0A0F900215220E5
:103DB00002F09CF940F23F11532002F097F94FF4C2
:103DC0002741602002F092F90121612002F08EF972
:103DD00000216A2002F08AF90021802002F086F991
:103DE0000021812002F082F9002100E02DE08220F4
:103DF00002F07CF90021832002F078F90021842070
:103E000002F074F90021852002F070F91021902051
:103E100002F06CF90021922002F068F90121932050
:103E200002F064F94FF48871952002F05FF90021E7
:103E3000972002F05BF90021982002F057F940F238
:103E40007311072002F052F95AE2A0480088A0F549
:103E50008A4131397DD10121002002F047F94FF428
:103E6000C561102002F042F90621122002F03EF94D
:103E700040F63221132002F039F94021112002F0DE
:103E800035F95021152002F031F91621122002F0E7
:103E90002DF90F20FFF7DAFB45F26061102002F0E8
:103EA00025F90F20FFF7D2FB42F64E21132002F036
:103EB0001DF90021012002F019F94FF44071022090
:103EC00002F014F941F23001032002F00FF940F240
:103ED0000221082002F00AF900210A2002F006F966
:103EE0000021302002F002F940F20241312002F0BC
:103EF000FDF84FF48371322002F0F8F84FF4E061DE
:103F0000332002F0F3F84FF48271342002F0EEF81F
:103F100040F20131352002F0E9F840F20771362015
:103F200002F0E4F840F20531372002F0DFF84FF4F8
:103F30000271382002F0DAF840F60B71392002F0F5
:103F4000D5F80F20FFF782FB0221412002F0CEF8C6
:103F500000E037E04FF42741602002F0C7F801216C
:103F6000612002F0C3F840F21911902002F0BEF86F
:103F70004FF48571922002F0B9F80421932002F0E9
:103F8000B5F84FF48071A02002F0B0F80F20FFF7D1
:103F90005DFB0F20FFF75AFB0F20FFF757FB0F20A9
:103FA000FFF754FB40F23311072002F09FF80F2077
:103FB000FFF74CFB0021A02002F098F81420FFF737
:103FC00045FB9DE141480088A0F5EE4183397CD155
:103FD0000121FF2002F08AF80821F32002F086F880
:103FE0004FF48071012002F081F84FF4E06102206B
:103FF00002F07CF841F23001032002F077F840F241
:104000000231082002F072F840F20721082002F085
:104010006DF80021092002F069F800210A2002F061
:1040200065F80021102002F061F80521112002F04E
:104030005DF80021122002F059F80021132002F04F
:1040400055F81420FFF702FB41F2B021102002F0D6
:104050004DF81420FFF7FAFA0721112002F046F874
:104060001420FFF7F3FA8B21122002F03FF81420FE
:10407000FFF7ECFA4FF4B851132002F037F8142090
:10408000FFF7E4FA2221292002F030F80021302045
:1040900002F02CF840F20771312002F027F840F2CC
:1040A0000551322002F022F840F20711352002F0CB
:1040B0001DF80821362002F019F80021372002F0FF
:1040C00015F840F20221382002E040E0A400001080
:1040D00002F00CF84FF48371392002F007F840F237
:1040E00002213C2002F002F84FF481613D2001F0F2
:1040F000FDFF1420FFF7AAFA0021502001F0F6FF7F
:10410000EF21512001F0F2FF0021522001F0EEFFDB
:1041100040F23F11532001F0E9FF4FF427416020A6
:1041200001F0E4FF0121612001F0E0FF3321902044
:1041300001F0DCFF0B212B2001F0D8FF40F23311FE
:10414000072001F0D3FF1420FFF780FAD8E0714870
:104150000088A0F509418939F8D12121072001F013
:10416000C5FF0121002001F0C1FF2321072001F03C
:10417000BDFF0021102001F0B9FF40F6B830FFF775
:1041800065FA3321072001F0B1FF46F270011120DA
:1041900001F0ACFF4FF4C061022001F0A7FF40F630
:1041A0000401032001F0A2FF00210C2001F09EFF7A
:1041B00040F60C010D2001F099FF4FF424510E2020
:1041C00001F094FFB8211E2001F090FF42F63F312C
:1041D000012001F08BFF0021102001F087FF00215A
:1041E000052001F083FF0021062001F07FFF4EF63D
:1041F0001C71162001F07AFF0321172001F076FFD1
:1042000040F23321072001F071FFC0210B2001F0A3
:104210006DFF00210F2001F069FF0021412001F016
:1042200065FF0021422001F061FF0021482001F0DC
:104230005DFF40F23F11492001F058FF00214A2064
:1042400001F054FF00214B2001F050FF4FF46F416B
:10425000442001F04BFF0021452001F047FF40F2D0
:104260003F11462001F042FF40F20771302001F07B
:104270003DFF4FF40171312001F038FF4FF401711F
:10428000322001F033FF40F20251332001F02EFFC3
:1042900040F20751342001F029FF4FF4017135201D
:1042A00001F024FF4FF40171362001F01FFF40F2AE
:1042B0000251372001F01AFF40F202313A2001F09A
:1042C00015FF40F202313B2001F010FF00212320B6
:1042D00001F00CFF0021242001F008FF4FF4004101
:1042E000252001F003FF00214F2001F0FFFE0021F7
:1042F0004E2001F0FBFEFFF734FA1F20FFF71EFAF5
:10430000FFF72FFAFFF79CFA1F20FFF717FA00BFFD
:10431000FFF755BBA40000102DE9F84F05460E46E7
:10432000174698460095B14600242CE0A7F12000DE
:10433000244901EB001010F804A049460098FFF74B
:10434000D2F909F101001FFA80F9FFF79EF94FF049
:10435000000B13E01AF0800F04D01FFA88F0FFF76B
:1043600099F903E00A9988B2FFF794F94FEA4A6095
:104370004FEA106A0BF1010000F0FF0BBBF1080FD0
:10438000E8DB601CC4B2102CD0DBBDE8F88F2DE94F
:10439000F84305460E4614461F46DDF820800BE024
:1043A000CDF8008022783B4631462846FFF7B4FF1F
:1043B000641C05F1080085B220780028F0D1BDE822
:1043C000F8830000D062000000B585B001208DF8B0
:1043D000020000208DF8040002208DF80300002068
:1043E0008DF8000002208DF801006846FCF700FC03
:1043F00003208DF801006846FCF7FAFB4FF41650D5
:10440000039000208DF8100003208DF8110000208B
:104410008DF8120003A92148FDF728F802208DF835
:104420000B0000208DF80A0001208DF808008DF89F
:10443000090002A91948FDF75FFB05B000BD10B5E2
:1044400004460023224616491448FDF7E1F90121EC
:104450001248FDF7FCF810BD70B50446254606E08D
:1044600029466D1C01231A460C48FDF7D1F928781E
:104470000028F5D170BD0FB438B505A800900948E3
:10448000009A0499FBF724FF044600200090054899
:10449000FFF7E2FF204638BC5DF814FB00C0004087
:1044A000B4000010E400001011B581B00120FE49F5
:1044B000086101A808600022FC48FDF754FFC4B25F
:1044C0002CB1F949C1F808D09DF800001CBD0020AE
:1044D000FCE700B589B000208DF81C0002208DF8A3
:1044E0001E0000208DF81F008DF8200007208DF899
:1044F0001D0007A8FCF77CFB08208DF81D0007A80D
:10450000FCF776FB09208DF81D0007A8FCF770FB6F
:104510000820019000200290039004900590E44848
:10452000069001A8FDF78AFE01A9E048FDF725FEE7
:104530000121DE48FDF78DFE09B000BD10B5002257
:104540004FF400211046FCF723F9012240210020FE
:10455000FCF71EF940210020FCF72EF9FFF7B9FF08
:10456000012240210020FCF713F940210020FCF734
:104570002DF98020FFF798FF012240210020FCF751
:1045800007F940210020FCF717F910BD2DE9F04391
:1045900095B01F204FF6FF73C6A264210090002043
:1045A000FFF7F5FE1F204FF6FF73C5A228210090EC
:1045B0000020FFF7ECFEB0E000243EE001224021A5
:1045C0000020FCF7E5F840210020FCF7FFF8D020A0
:1045D000FFF76AFF0020FFF767FF4006000D10A9F4
:1045E00021F814009020FFF75FFF10A931F8141094
:1045F00041EAE00010A921F814000020FFF754FF61
:104600004006000D0BA921F814000020FFF74CFF15
:104610000BA931F8141041EAE0000BA921F81400AD
:104620008020FFF741FF012240210020FCF7B0F875
:1046300040210020FCF7C0F8641C0A2CBED34FF6C2
:10464000FF731F464FF0000C4FF0000800210022BE
:10465000002032E00DF1400939F81090994503D25D
:104660000DF1400939F810300DF1400939F810907A
:10467000E14503D90DF1400939F810C00DF14009A9
:1046800039F8109049440DF12C0939F81090B945CA
:1046900003D20DF12C0939F810700DF12C0939F8FD
:1046A0001090C14503D90DF12C0939F810800DF196
:1046B0002C0939F810904A44401C0A28CAD3A1EBAF
:1046C0000309A9EB0C01A2EB0709A9EB0802C1F34E
:1046D000CF05C2F3CF062A467CA106A800F0AEF9AA
:1046E00032467CA101A800F0A9F91F2047F6FF730C
:1046F00006AA3C2100900020FFF749FE1F2047F644
:10470000FF7301AA502100900020FFF740FE3246BF
:10471000294672A0FFF7AFFE00BF0020FCF760F84B
:1047200010F4002F3FF448AF1F204FF6FF7372A222
:10473000282100900020FFF72AFE1F204FF6FF736C
:1047400070A2642100900020FFF721FE15B0BDE8A3
:10475000F0832DE9F04796B005460E461746EBE08C
:1047600000243EE0012240210020FCF711F8402106
:104770000020FCF72BF8D020FFF796FE0020FFF773
:1047800093FE4006000D11A921F814009020FFF7B8
:104790008BFE11A931F8141041EAE00011A921F8AB
:1047A00014000020FFF780FE4006000D0CA921F840
:1047B00014000020FFF778FE0CA931F8141041EA2C
:1047C000E0000CA921F814008020FFF76DFE012203
:1047D00040210020FBF7DCFF40210020FBF7ECFF2D
:1047E000641C0A2CBED34FF6FF739C464FF00008A2
:1047F0004FF0000900210022002032E00DF1440AB0
:104800003AF810A09A4503D20DF1440A3AF8103054
:104810000DF1440A3AF810A0C24503D90DF1440A3B
:104820003AF810800DF1440A3AF810A051440DF105
:10483000300A3AF810A0E24503D20DF1300A3AF8F6
:1048400010C00DF1300A3AF810A0CA4503D90DF195
:10485000300A3AF810900DF1300A3AF810A052449C
:10486000401C0A28CAD3A1EB030AAAEB0801A2EB59
:104870000C0AAAEB0902C1F3CF0AA5F800A0C2F303
:10488000CF0AA6F800A02A8810A107A800F0D6F841
:10489000328810A102A800F0D1F847F6FF70034655
:1048A00007AA0021009033E0E80200100000034056
:1048B000801A060020202020202020202020000018
:1048C000746F75636820646F776E0000583A202516
:1048D00030346400593A202530346400746F7563B5
:1048E0006820646F776E2120583A2530346420594F
:1048F0003A253034640D0A0020202020202020207A
:1049000020202000746F75636820757020200000DF
:104910000846FFF73CFD47F6FF70034602AA002158
:1049200000900846FFF733FD32462946AFF25400A7
:10493000FFF7A1FD012038600020FBF751FF10F4C4
:10494000002F3FF40DAF16B0BDE8F08753EA020C1C
:1049500000F069802DE9F04B4FF00006002B1FBFDF
:10496000B3FA83F503FA05F424FA05F65E4012BFA4
:104970001643B2FA82F502FA05F4C5F120051EBF0E
:1049800022FA05FC44EA0C04203556EA044C4FEAAE
:10499000144418BF641C4FF000084FF00009904207
:1049A00071EB030C39D3002919BFB1FA81F701FA71
:1049B00007F6B0FA80F700FA07F6C7F120071EBF26
:1049C00020FA07FC46EA0C062037B6FBF4FCA7EBFE
:1049D0000507103F07F01F0BCBF120060CFA0BFB6D
:1049E0002CFA06F644BFB3460026202FA4BF5E462D
:1049F0004FF0000B5BEA060C08BF4FF0010B19EB00
:104A00000B09ABFB027C48EB0608C01B06FB02CC83
:104A10000BFB03CC71EB0C01C1E70B460246414690
:104A20004846BDE8F08B13B54FF000004FF0000191
:104A3000AFF30080BDE81C40704700000FB41CB508
:104A4000084B06AA7B4469460090059800F0E9F9F6
:104A500004460020694600F0F7F920461CBC5DF8CA
:104A600014FB00000104000070B50446856900686D
:104A7000C10601D5302600E02026C00708D070BD51
:104A8000D4E9012130469047206A00F101002062FC
:104A90006D1EF5D570BD70B5044685690078C007F8
:104AA00008D170BDD4E9012120209047206A00F18F
:104AB000010020626D1EF5D570BD00002DE9F041AA
:104AC0000646002410687529314616A511D000F05D
:104AD000F7F8002803DAC0F1000013A507E03168F9
:104AE0008A0701D511A502E0490704D510A50124C4
:104AF00001E000F0EEF800210A2306F1240707E0A8
:104B0000B0FBF3F203FB1200303078541046491C1E
:104B10000028F5D123462A463046BDE8F04100F092
:104B20000AB90000000000002D0000002B0000006A
:104B3000200000002DE9F05F894604464FF0000A8E
:104B4000DFF878B1FB44C0F820A02046E168884730
:104B5000002875D0252806D0D4E901219047206A85
:104B6000401C2062F1E700265F462046E168884746
:104B70002028054608DB312D06D207EB050010F88A
:104B8000200C08B10643F0E7B00701D526F0040673
:104B9000C4F81CA00027C4F818A02A2D09D0284664
:104BA00001F01FFA38B304EB8708303DC8F81850FD
:104BB00019E059F8041B204604EB87029161E16873
:104BC0008847012F054618D1E069002820DA26F031
:104BD00020061DE0D8F8180000EB800005EB40002F
:104BE0003038C8F818002046E1688847054601F0CB
:104BF000F8F90028EED1012F0AD02E2D08D1204639
:104C0000E16888477F1C0546022F46F02006C4DB7A
:104C1000A069002803DA404246F00106A061F007CF
:104C200001D026F010066C2D0BD0682D09D04C2D2C
:104C300039D06A2D35D0742D35D07A2D33D016E089
:104C400038E0E1682F4620468847B842054609D13A
:104C50006C2F26D04FF48060E168064320468847D9
:104C6000054604E06C2F1AD04FF4807006430DB354
:104C7000A5F14100192802D8203546F400664A46BD
:104C80002946204626604E46FBF75AFA80B1012895
:104C90000BD0F61D26F0070000F1080955E740206B
:104CA000E4E78020D8E70020D6E706F104094CE7C6
:104CB000284651E7206ABDE8F09F0000781D0000FB
:104CC00009684A0501D540B27047C905FCD500B254
:104CD000704709684A0501D5C0B27047C905FCD5BF
:104CE00080B2704770B50C460546012A05D0287879
:104CF000800600D5EA69002302E0012305E05B1C81
:104D0000934202D2E05C0028F9D1A869E618C01AE3
:104D1000A861286A184428622846FFF7A5FE04E027
:104D2000D5E9012114F8010B9047B442F8D3284685
:104D3000FFF7B1FE70BD2DE9F0470D46994692464A
:104D4000044600F124080168880604D5E06921F0D2
:104D50001001216000E00120A84202DDA0EB050760
:104D600000E00027A16907EB050202EB0900A1EBB7
:104D70000000A0612078C00602D42046FFF774FE30
:104D8000002608E0D4E901211AF806009047206ABD
:104D9000401C761C20624E45F4DB2078C0060AD504
:104DA0002046FFF761FE06E0D4E90121302090475C
:104DB000206A401C2062381EA7F10107F4DC07E0DE
:104DC000D4E9012118F805009047206A401C2062B0
:104DD000281EA5F10105F3DC2046FFF75CFE2078D4
:104DE000000602D50220BDE8F0870120FBE711682C
:104DF0000268006A530501D508700BE0D30501D5A0
:104E0000088007E0130603D5C217C1E9000201E0DC
:104E1000520608600120704701694A1C0261087847
:104E2000704700B58FB0CDE90131002105910549EA
:104E30007944CDE9031011466846FFF77BFE0FB0B9
:104E400000BD0000E5FFFFFF0A6802F8010B0A60E1
:104E5000704700002DE9FF5F15468A460446DFF8DB
:104E6000AC80F8440027D8E900103E46CDE9001098
:104E700011E03AF816106A4602A800F090FB411CB7
:104E800007D02178890603D5E269391891420ED8F6
:104E9000074406F101062078800602D5E069B84291
:104EA00005DDAE42E5DB3AF816000028E1D1A06945
:104EB000C01BA0612046FFF7D7FDD8E90010CDE95F
:104EC0000010002016E03AF818106A4602A800F018
:104ED00066FB8146401C0BD000250DF1080B05E058
:104EE000D4E901211BF8050090476D1C4D45F7D30F
:104EF00008F10100B0428046E5DB206A38442062B8
:104F00002046FFF7C8FDBDE8FF9F00006E1A0000B5
:104F10002DE9F0418046D21D22F007020025D2E99A
:104F20000002F52914A612D0002A06DA0023D0EBDD
:104F3000030063EB020211A608E0D8F800108B070B
:104F400001D50FA602E0490701D50EA6012511469D
:104F5000002408F1240704E000F0A0F830323A55AC
:104F6000641C50EA0102F7D12B46324621464046E6
:104F7000BDE8F041FFF7DFBE000000002D0000009B
:104F80002B0000002000000030B4002100F12404B8
:104F90000CE002F0070505F130054FEAD20242EAC3
:104FA0004372655401F101014FEAD30352EA03054C
:104FB000EFD10468002310A2250708D504F02004CF
:104FC0000C4304D0C46901230CA2641EC46130BC2C
:104FD000FFF7B1BE10B5044621461068FFF779FE11
:104FE00002462046BDE810400023CDE7D21D22F046
:104FF0000701D1E90023C7E70000000030000000EE
:10500000F0B40D460188090502D5234C7C4402E02A
:10501000214C7C440E34002100F124060BE002F008
:105020000F074FEA1212E75D42EA03724FEA1313C9
:10503000775401F1010152EA0307F0D1027800230D
:10504000120704D5702D06D009B11134022322466F
:10505000F0BCFFF770BE10340123F8E770B50446CA
:105060000D4621461068FFF734FE024629462046C9
:10507000BDE870400023C3E7D21D22F00703D3E947
:105080000023BDE70368126843F020030360082390
:10509000C3610023B4E70000CC18000030B5B0F1C4
:1050A0000A024FEA900E71F100034EEA817EB0EBE6
:1050B0000E0061EB91014FEA101E4EEA017E10EBEB
:1050C0000E0041EB11114FEA102E4EEA016E10EB6B
:1050D0000E0041EB11214FEA104E4EEA014E10EB4B
:1050E0000E0041EB1141401841F100014FEAD000A0
:1050F00040EA41704FEAD10110EB80054FEA81048C
:1051000044EA907444EB01046D1944EB0404521B0F
:10511000A3414FF0000348BF0A3200D530BD401C08
:1051200041F1000130BD70472DE9FF4F0C461E468E
:105130004FF0FF378BB0D2E90001DDF860800A90B4
:105140008A46C1F30A5505B93D46002108464FF08D
:105150000000BAF1000F00F4400005DA00EB800017
:105160004FF4400101EA50004FEA9059B9F1010FA4
:1051700000DDB9460A9850EA4A000ED044F61050B5
:10518000A5F2FF3545432F14B8F1000F1ED075422C
:10519000291E1EDDC9F100021CE0B8F1010F4FF01D
:1051A000000001D0302103E0F24305E02154401C0F
:1051B000B042FBDB30460022002121540B99C1F89C
:1051C0000880C1E900200FB0BDE8F08FBD1B6D1C49
:1051D000DEE74A4600DA694206A800F071FA06AB3B
:1051E00007CB03AB07C350460A9900F02BFB8DE8B1
:1051F0000700A0F500501F3800900398002D09DD2E
:1052000042F21F014A46084403A90390684600F091
:105210008AFD08E0A0F500504A461F3803A9039014
:10522000684600F094FD8DE807000004000C03D0F0
:105230004FF0FF30410800E01046B8F1000F03D0F6
:105240000022009215461FE0751E06D4FFF726FFC8
:1052500002F1300262556D1EF8D5B34601220843B3
:1052600002D000227F1C04E02078302801D10022E7
:105270007F1E002A099787D01DE0112D07DAFFF75E
:105280000DFF303262556D1C50EA0102F5D1084322
:105290000FD10021681E05E0235C625C6354491C49
:1052A0002254401E8142F7DBAB46A81B401E0990EA
:1052B00001E0009848B1002004F80B000B98099A0F
:1052C000C0F80880C0E9002B7DE711264FF00008E8
:1052D0005AE72DE9F04F88460446D21D22F0070117
:1052E00091B0D1E90001CDE90A0100F066FE024665
:1052F0000B98C00F01D02D2007E02068810701D551
:105300002B2002E0202101EAC000032A099001D0ED
:10531000072A05DB03464146204600F091F90FE1DC
:105320002078800601D5E06900E00620B8F1650F1D
:10533000814606D0B8F1660F18D0B8F1670F72D168
:1053400032E00020B9F1110F009001DB112301E0E0
:1053500009F101030AAA01A90CA8FFF7E5FEDDE99E
:105360000C70002609F10105834648E001204B46F8
:1053700000904FF000470AAA01A90CA8FFF7D4FE3D
:10538000DDE90DB00C995D46002618B909F1010060
:1053900001EB0005B9EB050003D4C0F1FF3609F1BC
:1053A0000105A5EB09002BE0B9F1010F01DA4FF07F
:1053B00001090020B9F1110F0090484601DD1123C9
:1053C00000E003460AAA01A90CA8FFF7ADFEDDE93B
:1053D0000C704D4600268346207800070AD4AB4562
:1053E00000DA5D4601A8012D04DD411911F8011C08
:1053F000302907D04F4502DA17F1040F04DA0120F3
:10540000824610E06D1EEEE7002F02DCED1B3E44ED
:1054100003E0781CA84200DD0546A7EB060000F17A
:10542000010A4FF000472078000703D4AA4501DBAA
:105430004FF0FF3A0021B7F1004F0DF143088DF80E
:10544000431023D002202B23002F01DA7F422D238B
:105450004FF00A0C011EA0F1010000DC4FB197FBD8
:10546000FCF10CFB11720F4602F1300208F8012D1D
:10547000F0E7A8F1010003702188090501D5452155
:1054800000E06521A0F1010800F8011C09980FA9AE
:10549000A1EB080707F1070700B1012000EB0501A8
:1054A00001EBEA70A1693844A1EB0000A0F1010012
:1054B000A0612078C00602D42046FFF7D5FA0998EB
:1054C00030B1D4E901219047206A00F10100206247
:1054D0002078C00620D52046FFF7C6FA1CE0002E33
:1054E00004DBB34502DD01A8805D00E03020D4E993
:1054F00001219047206A761C401CBAF1010A206203
:105500000AD100F099F8C0680168405CD4E9012133
:105510009047206A401C2062281EA5F10105DEDCB0
:1055200007E0D4E9012118F8010B9047206A401CDC
:105530002062381EA7F10107F3DC2046FFF7ABFA23
:10554000022011B040E610B5436913B1AFF30080FB
:1055500001E0FFF7C7FB012010BD127800F1240124
:105560000A7000224A700122EDE711684FF0FF3205
:10557000E9E710B5436913B1AFF3008001E0FFF72D
:1055800069FC012010BD128800F1240182840022F0
:10559000C2840122EDE711684FF0FF32E9E770B5F0
:1055A00016460C46054600F03FF8036893F80101E3
:1055B000012806D0FF2C0FD8185D68B101202C708F
:1055C00070BDD3F807013246214603442846BDE8A2
:1055D000704003F2071318474FF0FF3070BD754657
:1055E00000F0E6F8AE4605006946534620F0070095
:1055F000854618B020B5FAF71BFEBDE820404FF0F5
:1056000000064FF000074FF000084FF0000B21F0AC
:105610000701AC46ACE8C009ACE8C009ACE8C00979
:10562000ACE8C0098D46704710B500F005F8001DC4
:1056300010BD00BFF90A00000048704720030010A9
:105640002DE9F0411F46044603260168072A01F4AC
:10565000006004DB08B116A505E016A503E008B15B
:1056600015A500E015A521F010002060A069C01E5E
:10567000A0610FB1401EA0612046FFF7F5F94FB1C0
:10568000D4E9012138469047206A401C2062C01CA2
:10569000206206E0206AFAE7D4E9012115F8010B3F
:1056A0009047761EF8D22046FFF7F5F9BDE8F08165
:1056B0004E414E006E616E00494E4600696E6600B6
:1056C0002DE9F047814616468AB035487844D0E93E
:1056D000002380680092CDE90130314878440C38CD
:1056E000D0E90223006903924FF03702CDE904307C
:1056F00041F69B30014491FBF2F0A0F1800502FBE2
:1057000010141B3C02D56442012000E00020DFF8A9
:1057100090A080460027FA44AAF1C60A0DE0E007EF
:1057200009D03246684607EB47010AEB810100F0D9
:105730000EFB8DE8070064107F1C002CEFD1184F82
:105740007F44B43F17E0E80713D007EB04100DF1D6
:10575000180A90E80E00AAE80E00C068F04201D1D5
:1057600098190890324606A903A800F0F0FA03AB96
:1057700007C36D10641C002DE5D132466946B8F1AF
:10578000000F03A802D000F0CEFA01E000F0DFFA2B
:10579000C9E90001C9F808200AB0BDE8F087000097
:1057A000B01200000446AFF300802046FAF72BFD4C
:1057B00000487047000300104FF0013C50F8042BE4
:1057C00051F8043B9A4221D1A2EB0C03934313EA14
:1057D000CC1317D150F8042B51F8043B9A4215D141
:1057E000A2EB0C03934313EACC130BD150F8042B18
:1057F00051F8043B9A4209D1A2EB0C03934313EAFC
:10580000CC13DBD04FF00000704700BFD01A01BAB4
:10581000B1FA81F101F0180122FA01F0CB40C1F197
:105820002001DBB2C0B2C01A2CFA01F3D11A9143A5
:1058300011EAC311E6D1704701491820ABBEFEE75B
:10584000260002005FEA400C08BF91F0000F4FEA0B
:105850008C234FEAC12243EA51514FEA1C5018BF32
:1058600000F5F0404FEA300018BF41F000415FEA18
:105870006C5C00F02980BCF1FF3F08BF40F0804025
:105880007047130C06BF12044FF0100C4FF0000CC1
:10589000130E04BF12020CF1080C130F04BF120107
:1058A0000CF1040C930F04BF92000CF1020CD30F07
:1058B00004BF52000CF1010C11464FF00002A0F1A0
:1058C0001F00A0EB0C00704711F0004F08BF70479D
:1058D00031F000413FF4D5AF0B0C06BF09044FF087
:1058E000100C4FF0000C0B0E04BF09020CF1080C59
:1058F0000B0F04BF09010CF1040C8B0F04BF8900CE
:105900000CF1020CCB0F04BF49000CF1010CCCF1DF
:105910002003A0EB0C0022FA03F302FA0CF241EA96
:10592000030100F10100704720F07F4C80EA030082
:1059300023F07F47ACEB070303F57C5300F00040F6
:1059400003F1FF032DE980494FEA154B09B44FEAF3
:10595000144325EA0B4E24EA03480FF2042606EB13
:10596000132749083E785FEA320203FB0667C7F552
:10597000000707FB06F64FEA54374FEAD64606F112
:10598000020607FB066CCCF1005C4FEA1C472CEAD0
:10599000074C07FB06F40CFB06F504EB15464FEA33
:1059A000961634BF00204FF000404FEAD13706FB77
:1059B00007FC4FEA1C4C0CFB0BF7D21B03FB0CF74C
:1059C00061EB07010CFB0EF7B0EB074072EB1742DF
:1059D0000CFB08F734BFA2EB0742B2EB074261EBC6
:1059E00017414FEA0C444FEA910706FB07FC4FEAC8
:1059F0001C4C0CFB0BF7B0EBC74072EB573203FBB0
:105A00000CF734BFA2EBC742B2EBC74261EB573190
:105A10000CFB0EF7B0EBC70072EB57720CFB08F7EC
:105A200034BFA2EBC702B2EBC70261EB5771039F11
:105A30004FEA816141EA921104EBCC044FEAD1377D
:105A40004FEA826206FB07FC42EA90124FEA80604E
:105A50004FEA1C4C0CFB0BF7D21B03FB0CF761EB62
:105A600007010CFB0EF7B0EB074072EB17420CFB83
:105A700008F734BFA2EB0742B2EB074261EB1741D4
:105A80004FEA8C554FEA910704EB9C2406FB07FC78
:105A90004FEA1C4C0CFB0BF7B0EBC74072EB5732D4
:105AA00003FB0CF734BFA2EBC742B2EBC74261EB7A
:105AB00057310CFB0EF7B0EBC70072EB57720CFBC3
:105AC00008F734BFA2EBC702B2EBC70261EB577114
:105AD00015EB4C254FEA816141EA92114FEA82624F
